:020000040800F2
:1000000000A0002059400008C5170008C9170008C3
:10001000CD170008D1170008D51700080000000010
:10002000000000000000000000000000D9170008D8
:10003000DD17000800000000E1170008590E000855
:10004000A5400008A5400008A5400008A5400008FC
:10005000A5400008A5400008A5400008A5400008EC
:10006000A5400008A5400008A5400008A5400008DC
:10007000A5400008A5400008A5400008A5400008CC
:10008000A5400008A5400008A5400008A5400008BC
:10009000E5170008A5400008A5400008A540000895
:1000A000A5400008A5400008A5400008A54000089C
:1000B000A5400008A5400008A5400008A54000088C
:1000C000A5400008A5400008A5400008A54000087C
:1000D000A5400008A5400008A5400008A54000086C
:1000E000A5400008A5400008E9170008A540000841
:1000F000A5400008A5400008A5400008A54000084C
:10010000000000000000000000000000A540000802
:10011000A5400008A5400008A5400008A54000082B
:10012000A5400008A5400008A5400008A54000081B
:10013000A5400008A54000080000000000000000E5
:10014000A5400008A5400008A540000800000000E8
:10015000000000000000000000000000000000009F
:100160000000000000000000A5400008A5400008B5
:10017000A540000800000000000000000000000092
:0801800000000000A54000088A
:1001880030B54FF0805083B0012102F047FF0120C5
:10019800014602F037FF4FF40010012102F026FF5C
:1001A8004FF40030012102F021FF00240223032232
:1001B80069464FF4C0554FF090408DF804300095D3
:1001C8008DF805208DF806408DF8074002F056FCA2
:1001D8004FF090400B210E2202F0BCFC0C210E22A5
:1001E8004FF0904002F0B6FC122002F00FFB084BD3
:1001F80008210122184612251C711D6059719A7137
:1002080002F076FA204602F001FB03B030BD00BFD1
:10021800C801002008B5002002F0E2FE4FF40000FB
:100228000121BDE8084002F0F9BE00BF024B0322DD
:1002380000201A6002F0EABABC01002008B50120CB
:1002480002F040FD02F046FD104B1870112002F03C
:1002580009FF0028FAD0012002F058FD192002F009
:1002680001FF0028FAD0022002F056FD02F05EFDE0
:100278000828FBD1064B9B7A1BB9064B01221A6052
:1002880008BD044B05221A6008BD00BFC401002048
:1002980088040020BC01002030B54FF4A06083B072
:1002A80002F0CCFC01241422002501A802238DF8B9
:1002B80004208DF805308DF806508DF8074002F0BF
:1002C800C7FC01A82A238DF804308DF805408DF865
:1002D800074002F0BDFC062301A88DF805508DF8F3
:1002E800043002F0B5FC03B030BD00BF20B90548AA
:1002F8004FF4804102F02ABC02484FF4804102F0DA
:1003080027BC00BF00100048404B4149414A1B68C8
:1003180009681268D21810B475D0100F3E4B09281E
:100328008CBF37303030120100249870100F092824
:10033800DC70394C8CBF3730303012012071100F0F
:10034800002409285C71344C8CBF373030301201DE
:10035800A071100F00240928DC712F4C8CBF373096
:10036800303012012072100F002409285C722A4CC8
:100378008CBF373030301201A072100F00240928CA
:10038800DC72254C8CBF3730303012012073100FCF
:10039800002409285C73204C8CBF37303030C2F3FE
:1003A8000362A0730020092AD8731B4894BF303217
:1003B800373202740A0F0020092A587416488CBF75
:1003C80037323032090182740A0F0020092AD874A2
:1003D80011488CBF37323032090102750A0F0020EC
:1003E800092A58750C488CBF37323032C1F3036183
:1003F800827500220929DA75074A94BF30313731EE
:10040800117600225A765DF8044B7047E8F7FF1F13
:10041800ECF7FF1FF0F7FF1F2400002070B5002045
:1004280001F0F8F801F0A6F9012802D0022815D049
:1004380070BD0624642000F029FDFF2001F0EAF8D1
:10044800642000F023FD002001F0E4F8631E13F09F
:10045800FF04EFD1BDE8704000F090BD194C207842
:1004680001F0C6FC002001F01BFD0028FAD1154D53
:100478000646207801F0BCFC01F07CF9012815D073
:100488000228F6D100F076FE0625642000F0FEFC76
:10049800207801F0ADFC642000F0F8FC002001F0A9
:1004A800B9F86B1E13F0FF05EFD170BD2B7801333F
:1004B800DBB2072B4FF0000094BF2B702E7001F0B9
:1004C800A9F8D6E771010020F8B53F4C23785BB254
:1004D800023B072B0FD8DFE803F0540E310E0E0E47
:1004E80014043A4B3A4A03F1380013F8011B02F896
:1004F800011B8342F9D1FF232370364B00221A6077
:10050800F8BD324A344B117855789078D6781279FC
:10051800DE701A71B3F803201970642A5D70987040
:1005280084BF2E4B1A602E4B1A78FF21217022BBF4
:1005380001221A70274B00221A60F8BD234B294D5F
:1005480093F800C093F801E09F78DE7819795A791A
:1005580029716A719979DA79A888A971FF2385F8D0
:1005680000C085F801E0AF70EE70EA71237000F00A
:1005780095FCE878E98800F079FE164B00221A60AD
:10058800F8BD124A184B117892F801C09778D678BE
:100598001079557992795D719A71B3F805201871BF
:1005A80012481D791970642A4FF0FF0183F801C0C1
:1005B8009F70DE7005802170DFD9084B1A60054BEB
:1005C80000221A60F8BD00BFE4000020700300207C
:1005D8001C020020780100202C03002004000020C9
:1005E80074010020E8020020E00200200000002042
:1005F80008B5FFF7C5FDFFF70DFEFFF74DFE03F049
:10060800BBFA024A1368052BFCD108BDBC010020C7
:100618002DE9F00F3B483C4C07683C4B3C493D4AB0
:10062800DFF80481D4F80090D1F800C01E68B8F84B
:100638000080128802716FF3172707604127C7707F
:100648006FF317290227A0F8058007706FF3172C9E
:10065800C4F8009008276FF317264FF47A7A40F60B
:10066800C41904202C4AA4F803802770A1F804A018
:10067800C1F800C0A1F80690CF7008704FF4A068C8
:100688001E604FF44874254FDFF8A0C09FED247A10
:10069800DFED247AA3F804804FF07E560025002170
:1006A8004BF234794FF47A4ADC809F604AF228048E
:1006B8004FF00908C3F80CC04FF0010B05271E6264
:1006C80041F2672C0626C3F81090C3F814A09C6169
:1006D800DC6183ED097AC3ED0A7AD970DD621D63A6
:1006E8005D63108751705180918083F8008082F893
:1006F80000B0A2F806C057879687BDE8F00F00F053
:100708007DBD00BFE00200202C0300201C02002059
:10071800E802002000000020D0010020004902006B
:10072800AE47613E8FC2753E04000020A06D0100F7
:100738002DE9F00FB749B84B0888B84C1A78B84B70
:1007480026885880002501300124013A0880DE807F
:100758009D805C70062A00F26282DFE812F05A007F
:10076800B00004016901BD010E020700AD48AE4D9D
:1007780046682C688168AA68AC4F6D680068B7F84D
:1007880000C0B7F804A0A3F838C076426442C6F3A4
:10079800C53BC4F3C5396D424BEA811B49EA82194E
:1007A800C2F3824848EAC508C1F3824C83F80DB009
:1007B80083F815904FEAE61B4FEA653976006D110C
:1007C8007F8883F80EB04CEAC00C4FEAE41BCAF1EC
:1007D800000A6400DE7383F8109046134FEAA129DB
:1007E8005D74401195128910921083F8128083F875
:1007F80016B0DC7583F80AC01E72587283F80B9025
:100808001973DD741A75A3F83CA05F87BDE8F00F73
:100818007047844A8448956884685168834F16688D
:100828000268B7F800A04068B7F80290BF885F87F1
:100838006D426442C5F3C53BC4F3C53876424BEA02
:10084800811B48EA8218C1F3824C4CEAC60CC2F3F9
:10085800824783F80DB083F815804FEA663B4FEA6C
:10086800E518761147EAC007CAF1000AC9F100097C
:100878006D0083F808B05E724FEAE41B8E126400C4
:1008880083F80AC083F80E804FEA603C4FEAA2283A
:10089800891040119210DD7383F816B0DC759F74CF
:1008A800DE72197383F810C0587483F813801A75B0
:1008B800A3F838A0A3F83C90BDE8F00F70475A4859
:1008C800584C4168A6688568584F0068B7F804C056
:1008D800B7F802A0A3F838C014CC494276426D425A
:1008E800C6F3C53BC1F382494BEA821B49EAC009FA
:1008F800C5F3C53848EA8118C2F3824C83F80DB0B5
:1009080083F812904FEAE61B4FEAA12976003F8848
:1009180083F815804CEAC40C4FEAE518CAF1000ABE
:100928006D0083F80EB0DE734FEA643B96126411D3
:1009380083F8139089104FEA6039921040111975A5
:1009480083F81680DD7583F80AC083F808B05C72F6
:10095800DE721A7383F810905874A3F83CA05F876E
:10096800BDE8F00F70472F4A2F4C11689568A068B2
:100978002E4F56686268B7F804A0B7F80090B7F829
:1009880002B0246849426D4240427642C1F382482F
:10099800C5F3C53CC0F3C53748EAC6084CEA811C14
:1009A80047EA8217644283F80A8083F80DC0C2F3CD
:1009B80082484FEA663C5F7576118F12891048EAC3
:1009C800C408CAF1000AC9F10009CBF1000B83F889
:1009D80008C05E724FEAE51C66136D006411DF7291
:1009E8001973C71191124000921083F80EC0DD737D
:1009F8001E745C7483F812809F75D875D9741A7543
:100A0800A3F838A0A3F83A90A3F83CB0BDE8F00FDB
:100A1800704700BF720100207101002054020020BD
:100A2800D0010020100200203403002058020020CA
:100A3800A44AA548156891685668A44F8268046856
:100A48004068B7F804A0B7F800907F885F876D42C8
:100A5800C5F3C53B76424BEA811BC1F3824883F854
:100A68000DB04FEA663B644248EAC608C2F3824CBE
:100A7800C0F3C537761183F808B04FEAE51B6D005F
:100A880047EA82174CEAC40CCAF1000AC9F1000906
:100A98005E7283F80A8066134FEAA128641183F80E
:100AA8000EB0DD734FEAA22BC511891092104000D9
:100AB8001E745C7483F812C05F7583F80B80197319
:100AC80083F813B01A759D75D875A3F838A0A3F8E4
:100AD8003C90BDE8F00F70477B4C7A486768A26885
:100AE800816805684668246878487F42C7F3C53B33
:100AF8004BEA821BC2F38249C1F38248C5F3C53C65
:100B080049EAC40948EAC6084CEA811C4FEAE71AD0
:100B180083F815B07F004FEA663B83F816A076117C
:100B28004FEAA12ADF7583F81290EF114FEA643972
:100B38006D00641183F80A8083F80DC04FEAA2287B
:100B4800B0F804C083F808B08910B0F802B0008883
:100B58005E72921083F80BA019739F73DD7383F88C
:100B680010905C7483F813801A75A3F838C0A3F842
:100B78003AB09887BDE8F00F7047524A524C166851
:100B880091685568514FA268B7F802C0B7F800904D
:100B9800A3F83AC011CC76424FEA6638C1F3824CCA
:100BA800C5F3C53BC2F3824A83F80880C0F3C53851
:100BB8004CEAC60C4BEA811B4AEAC40A48EA821886
:100BC8007611BF885E72C9F100098E1283F80AC0D7
:100BD80083F80DB04FEAE51C4FEA643B6D006411E1
:100BE80083F812A083F815804FEAA22A4FEAE0188A
:100BF800891092104000DE72197383F80EC0DD73FD
:100C080083F810B05C7483F813A01A7583F8168003
:100C1800D875A3F838909F87BDE8F00F70472A4A27
:100C2800284C516816689068284F494294E8240077
:100C38007642C1F3824BA468B7F800C0B7F804A0A5
:100C4800A3F83AC04BEAC60BC0F3C53983F812B013
:100C58004FEA663B6D4249EA8119C2F38248C4F300
:100C6800C53C761183F810B04FEAA12B891048EAE9
:100C7800C5087F885E744CEA821C6E13CAF1000AAC
:100C88006D1183F813B019754FEAA22BE11183F89F
:100C9800159064004FEAE019921040001E725D72D0
:100CA80083F80A8083F80DC083F80BB01A73997320
:100CB800DC7383F81690D875A3F838A09F87BDE831
:100CC800F00F704710020020340300205802002063
:100CD8002DE9F84FDFF86C81494C4A4F4A4EDFF84E
:100CE8005CA1DFF86491494DDFF860B1404602F03D
:100CF80025F8D8F80410464A464BA2FB0101890999
:100D0800454A01395960F02182F823100021072251
:100D180099601A60FFF76CFC00F06EFCFFF778FC36
:100D2800A08800F0BBF8E078E18800F09FFAB846A8
:100D380034463B784BB13949012003F077F901205B
:100D480003F082F8002388F8003033781B0607D4B4
:100D5800227899F8003052B29A4230D0FF2323709B
:100D6800002001F09DF838BB2B7813B3012BE0D19C
:100D780000F064FC00F030FB60BB00F09DFB28BB7A
:100D880000F0E8FBF0B99AF8003033B1244A25485E
:100D98001368028822499A4222D9234B1A68DBF841
:100DA80000309A42C5D900232B703B78002BC2D162
:100DB800CBE700F06DFCBCE7FFF730FBD4E7FFF7AB
:100DC80083FBCDE7194800F0CBFBDCE7184800F0BF
:100DD80079FBD5E7174800F00BFB17490880CCE7EB
:100DE800164A002313700B60FFF7A2FC14493E2239
:100DF800812003F007F9012003F012F8CDE700BFC6
:100E0800E802002070010020E400002074010020A6
:100E1800D34D621010E000E000ED00E06002002019
:100E280080010020000000207801002058020020E6
:100E38001002002034030020540200200800002083
:100E4800D0010020F00200207003002004000020E0
:100E58000A480B490B4A0C4B10B40468013404606F
:100E68000868013008601168013111601A6812B110
:100E78001A68013A1A605DF8044B7047780100203F
:100E880080010020A401002094010020024A106083
:100E98001368002BFCD1704794010020F0B52E4A4E
:100EA80085B00827C0260725302480210023B0F507
:100EB800FA7F10808DF808708DF809608DF80A5057
:100EC8008DF80B408DF80C108DF80D3037D0B0F53B
:100ED8007A7F34D0FA2827D0204B2148214A224C47
:100EE8001A6020215A609A6004608DF80E1004ACD4
:100EF800012502A800F0DEFF04F8095D2A46204615
:100F0800222101F03FF9402620462A4624218DF867
:100F1800076001F037F920462A462E218DF8076030
:100F280001F030F905B0F0BD0C4A0D480F49104CDE
:100F38008DF80E301160516091600460D7E7074B5F
:100F480007480C4A0C4C1A6010215A609A600460D9
:100F58008DF80E10CBE700BF580300206003002077
:100F68005C030020167A434198010020167AC33F9B
:100F780088010020167A4340AC0100202DE9F04F8B
:100F88002DED088B6C4B6D4F18686D4D9B88DFF805
:100F9800BCA1DFED6CBA9FED6CBA87B00DF1040906
:100FA8000190BB46A9F804304FF0000803AEBAF828
:100FB80014309FED648A4FF4807202FA08F203F04D
:100FC8000F0313439BB2AAF8143039F81800FFF73F
:100FD80065FF3B68F0EE488AB0EE489AC3ED00BA68
:100FE800C3ED01BAC3ED02BA40F6B934574802213D
:100FF80001F0A6FD03460028F8D130462821062234
:101008000393ADF8103001F02BF99DF80DC09DF851
:101018000C009DF810309DF80FE09DF80E109DF81B
:10102800112095ED004A95ED015A95ED026A00EB05
:101038000C2000B203EE100A01EB0E2103EB022292
:1010480009B212B23B68F8EEC33A05EE901A03EE05
:10105800102AF8EEE54AD3ED006A93ED017AD3ED54
:10106800027AF8EEC35AD3EE846A3046262194EE0B
:10107800857A0122D5EE867AFDEEE6AABDEEC7AAEC
:10108800FDEEE79A01F0ECF8F8EEEAAAB8EECAAA83
:10109800F8EEE99A013C39EE2A9A78EE8A8A38EE17
:1010A800298AA3D189EE0B9ADBF8003008F10108F0
:1010B800B8F1030FC8EE8B8A88EE0B8A83ED009A8D
:1010C800C3ED018A83ED028A7FF471AF2049214A7A
:1010D800214B03910492059301F0A4FB342001F005
:1010E800C7FC1E481E4DDFF8888001F0B3FB1B4883
:1010F8001C4901F01FFC05F10C07335928461A1D3D
:1011080019683251043501F015FCBD42F5D1454549
:1011180004F10404EFD1144B2846197801F00AFCB5
:1011280001F090FB114B1888FFF7B8FE07B0BDEC33
:10113800088BBDE8F08F00BFA84000085C030020C2
:10114800600300200000000000903B4500100048AC
:1011580088010020AC0100209801002000600008F0
:1011680004600008EFBEADDE7101002058030020C6
:10117800286000082DE9F04184B01849184A194B35
:1011880001910292039301F04DFB342001F070FCB1
:101198001548164CDFF8608001F05CFB12481449D2
:1011A80001F0C8FB002501AE04F10C077359204675
:1011B8001A1D19687251043401F0BCFBBC42F5D108
:1011C800444505F10405EFD10A4B2046197801F092
:1011D800B1FB04B0BDE8F04101F034BB8801002048
:1011E800AC0100209801002000600008046000089D
:1011F800EFBEADDE7101002028600008114A124BD5
:1012080012689A422DE9F00118D1104A104F114E78
:10121800114D124C124BDFF84C80DFF84CC007CA56
:1012280087E8070096E8070085E8070094E80700C4
:1012380083E80700D8F800308CF80030BDE8F001EA
:10124800704700BF00600008EFBEADDE0460000814
:101258008801002010600008AC0100201C60000814
:10126800980100202860000871010020F0B50646AA
:1012780087B00F460024012507E000F0B9FD0134CE
:10128800E4B26D00082CEDB205D035422046F4D109
:1012980000F0BAFDF3E701F097F940F2145380210A
:1012A80018229F428DF808108DF8092051D040F27D
:1012B8006C739F4257D0B7F55C7F4AD03A4B3B4995
:1012C8003B4A596060211A609A608DF80B1000241F
:1012D80002A88DF80A4001F0CFF807239022042EC7
:1012E8008DF812308DF810408DF81120314B53D005
:1012F800082E49D0022E40D02F4A1A6030215A6059
:101308009A608DF8161006AC80250022082304A8E0
:101318008DF815208DF813308DF8145001F08CF8E5
:10132800102304F8113D22212246322001F006F84C
:1013380040232246242132208DF8073000F0FEFF9A
:1013480022462E2132208DF8075000F0F7FF07B013
:10135800F0BD154B19491A4A596020211A609A6044
:101368008DF80B10B3E7104B1649174A5960402106
:101378001A609A608DF80B10A9E7144A8DF8164088
:101388001A605A609A60BEE7114A1A6020215A60B2
:101398009A608DF81610B6E70E4A1A6010215A6046
:1013A8009A608DF81610AEE74C030020555585411C
:1013B80054CE6E414003002089199342EB432341E8
:1013C8005D741141BD8652416F223B410C22C440DD
:1013D8000C22C4410C22444108B50221034801F003
:1013E800AFFBD0F1010038BF002008BD0010004855
:1013F800F0B583B0044600236846282106220093EE
:10140800ADF8043000F02CFF9DF801E09DF80010C5
:10141800274B9DF804001A689DF80370254B9DF82A
:1014280002609DF80550D3ED003AD3ED014AD3EDA3
:10143800025AD2ED006A92ED017AD2ED027A01EBFE
:101448000E2109B200EB052303EE101A06EB072262
:101458001BB212B2B8EEC34A06EE102A03EE103AD7
:10146800B8EEC65AB8EEC36AD3EE846A6846262137
:1014780094EE857A0122D5EE867AFDEEE66ABDEE17
:10148800C77AFDEEE77AC4ED006A84ED017AC4ED0F
:10149800027A00F0E5FE9DF80030C3F1280303EB63
:1014A800830303EB8303980000B203B0F0BD00BFD1
:1014B8005C030020600300200148102101F040BBBC
:1014C80000100048F0B583B004466A462821062378
:1014D800322000F0EFFF9DF801709DF800009DF8A4
:1014E80003609DF802109DF805509DF80420184BE4
:1014F80000EB072001EB062102EB052200B209B23E
:1015080012B206EE900A07EE101A07EE902A93ED33
:10151800005AD3ED015A93ED026AF8EEE66AB8EE86
:10152800C77AF8EEE77A66EE856A27EE257A67EEDF
:10153800867AFDEEE66ABDEEC77AFDEEE77AC4ED7F
:10154800006A84ED017AC4ED027A03B0F0BD00BFF1
:10155800400300200148042101F0F2BA00100048BD
:10156800F0B583B004466A46032106233C2000F008
:10157800A1FF9DF800709DF801009DF802609DF89C
:1015880003109DF804509DF805201A4B40EA0720E7
:1015980041EA062142EA052200B209B212B206EE79
:1015A800900A07EE101A07EE902A93ED005AD3ED31
:1015B800015A93ED026AF8EEE66AB8EEC77AF8EED9
:1015C800E77A66EE856A27EE257A67EE867AFDEE7B
:1015D800E66ABDEEC77AFDEEE77A16EE901A17EEC8
:1015E800102A17EE903A002021806280A38003B071
:1015F800F0BD00BF4C03002010B50024E0B2013458
:1016080000F0D0FB082CF9D100200146BDE81040BD
:1016180000F006BC70B506460125002407E000F07E
:10162800E7FB0134E4B26D00082CEDB205D0354279
:101638002046F4D100F0E8FBF3E770BD104A1148EA
:101648001368A0FB031010B480094FF47A74591C76
:1016580004FB103311607BB90B490C4B0A7852001C
:10166800D2B282F0FF0042EAD0120A70998A01F0E1
:101678000F0141EA02229A825DF8044B704700BFCD
:101688007C010020D34D6210750100200010004835
:10169800344B1A88013A92B22DE9F007002A51D04A
:1016A80031491A80DFF8C8C00F789CF800304E78AE
:1016B8008D78CC78087991F805A091F8069091F882
:1016C80007809F4294BF0027012747F002029E42ED
:1016D80094BF3E46164646F004029D4294BF3546E6
:1016E800154645F008029C4294BF2C46144644F027
:1016F8001002984294BF2046104640F020029A45B6
:1017080094BF0146114641F04002994598BF0A46E8
:10171800591C42F08000C9B298458CBF0346134655
:101728003F2984BF00228CF80020104A98BF8CF80B
:101738000010918A01F00F0141EA03239382BDE86A
:10174800F0077047084946F2A8100D781880012361
:101758008818054C407888541A460133182BF7D15D
:10176800E5759FE7A80100200C0000200010004844
:101778008401002038B5002000F092FBD0B10E4C57
:101788003223236020680C4D0028FBD100F088FB31
:1017980080B14FF47A732B6001E0236823B10020F5
:1017A80000F07EFB0028F8D12368002B0CBF022034
:1017B800012038BD002038BD94010020704700BFCB
:1017C800FEE700BFFEE700BFFEE700BFFEE700BF81
:1017D800704700BF704700BF704700BF00F09EB859
:1017E80008B5002000F082FA1220BDE8084001F098
:1017F8000DB800BF3E483F4B3F4A404910B4D0F8AF
:10180800884044F47004C0F88840186840F001002B
:101818001860586802405A601A6822F0847222F4EC
:1018280080321A601A6822F480221A605A6822F4F8
:10183800FE025A60DA6A22F00F02DA62186B83B08D
:101848000022014019639A60009201921A6842F4DA
:10185800A0221A601A4603E0009BB3F5A06F09D0D6
:10186800136803F400330193009B01330093019B39
:10187800002BF1D01F4B1B6813F4003318BF012352
:101888000193019B012B07D0194B4FF000629A601E
:1018980003B05DF8044B7047194A164B12211160CA
:1018A8005A685A605A685A605A6842F480625A60A4
:1018B8005A6822F47C125A605A6842F4E8125A6054
:1018C8001A6842F080721A6019460B68094A9B012F
:1018D800FBD5536823F003035360536843F00203B6
:1018E8005360536803F00C03082BFAD1CCE700BF10
:1018F80000ED00E0001002400CC07FF8CCFC00FFB7
:1019080000200240014B01221A7070470800002095
:10191800014B01221A7070477001002038B5344B12
:10192800344C1B68344D9BB2238022882B881A4084
:10193800120442D4228802F48062134245D12288DC
:1019480002F40052134203D0294A4DF6FF71116088
:10195800228802F48052134240D1228802F40062A5
:1019680013420AD0254B1B78DBB9022000F0BEF9E0
:101978001F4B4FF2FF721A602B88228802F4007204
:10198800134208D01A491E4A4FF6FF5008601178D2
:101998000131C9B21170228802F48072134203D156
:1019A80038BD00F093F9E3E7114B4FF6FF621A6078
:1019B8000720BDE8384000F099B902F0F9F822880C
:1019C8002B8802F480621342B9D0094A0D4B4FF6B6
:1019D800FF315B68116098472B88B0E7044B4EF6DF
:1019E800FF721A60002000F081F92B88B5E700BF6C
:1019F800445C00406C030020AC040020140100206B
:101A0800B801002088000020034B9B7A13B1034BD8
:101A180005221A60704700BF88040020BC0100201E
:101A2800014B04221A607047BC010020704700BFB8
:101A3800704700BF10B5154B1B681A7802F07F017C
:101A4800012905D002F06002202A0DD0022010BD25
:101A58000628F7D159790029F4D19A78222A13D087
:101A6800212AF3D10A4A08E00138C0B20828EDD883
:101A7800084A52F82020002AE8D000249A615C82A3
:101A880020469047204610BD034AF6E7A8040020E8
:101A9800991C0008684100088D1C000810B40F4B01
:101AA8001968CA78931EDBB2072B05D8012404FAFB
:101AB80003F313F0C50F05D1094B48B118465DF87B
:101AC800044B7047074C084BD2B222700028F5D15E
:101AD80080230B825DF8044B704700BFA8040020E8
:101AE800F4030020E40000207003002010B40C4B25
:101AF8001A68D378023BDBB2072B09D809490A4C8C
:101B0800C95C54F8233038B118465DF8044B704767
:101B1800064B7F210028F7D111825DF8044B7047EE
:101B2800A8040020AC4100088C410008F403002000
:101B3800074B1B681A7802F07F02212A01D0022085
:101B480070470B28FBD1034ADB78136000207047ED
:101B5800A8040020F003002009B1022070470028E3
:101B6800FBD1704708B103487047034B1B6801223B
:101B78001A827047F0030020A804002010B5FEF771
:101B8800C3FB054B1B6800249C7200F087F802F029
:101B980025FA024B1C6010BDA8040020BC010020DF
:101BA800264B274A1B68D27910B500245A729C72BA
:101BB800DC72204602F0EAF820464FF4007102F089
:101BC800EDF82046102102F0F7F82046182102F01F
:101BD80093F95821204602F07FF9204602F048F98F
:101BE800184B204693F82C1002F0C0F9204602F05A
:101BF8002BF901204FF4C06102F0D0F80120E02158
:101C080002F06AF90120A02102F076F901204021B2
:101C180002F09EF90120402102F0A8F901204FF4BA
:101C2800405102F0E3F80120202102F0C5F82046D7
:101C380001F080FF044B01221A6010BDA8040020A7
:101C4800EC40000888000020BC010020014901F098
:101C580077BC00BF08010020014901F071BC00BF3A
:101C680080000020054B1B68DB78042B04D804494E
:101C780001EBC30101F064BC00207047A8040020F8
:101C8800E8000020014901F05BBC00BF780000209B
:101C9800014901F055BC00BFDC00002038B5012027
:101CA800FEF724FB064D074B074C00224FF4E0518A
:101CB800012018601A6010462A602180196038BD1A
:101CC800445C0040405C0040AC040020064B1A68AD
:101CD80092B242F008021A601A6892B242F0040204
:101CE8001A60FEF7A3BA00BF405C004038B52B4C21
:101CF800072818BF20702378052B4BD8DFE803F09E
:101D0800142230353F036378244A013BDBB2637009
:101D18006378002B40D1224908684FF6EF730340DF
:101D280006200B60107038BD1D4D2A684FF6FB73F6
:101D380013402B60FEF782FA4FF43F4206232A60D5
:101D4800237038BD164D2A684FF6FB7313402B607D
:101D5800FEF774FA4FF43F4204232A60237038BD1B
:101D6800022203236270237038BD63780B4A013B5B
:101D7800DBB2637063787BB90423137038BD084BFA
:101D8800186880B240F0100005210A2218602170FE
:101D9800627038BD0623237038BD00BF740400206C
:101DA800405C004010B50F4B82B00446012153F847
:101DB800200001F01BF90C4B0C4A33F8143052F890
:101DC8002400009303220123002469468DF804307F
:101DD8008DF807308DF806408DF8052000F04EFE8E
:101DE80002B010BDB4410008D44100081801002019
:101DF800034B044A53F8203032F810209A61704798
:101E080018010020D4410008034B044A53F820303D
:101E180032F810201A85704718010020D4410008B4
:101E280030B5044687B00D464FF40030012101F06B
:101E3800DDF80120014601F0E5F806AB0121174A5B
:101E480043F8101D52F82400194600248DF80C4060
:101E58008DF80F4000F012FE012D01D007B030BD03
:101E68002146204601F0CEF9082304A88DF8153044
:101E780004948DF814408DF8165000F039FC0F23A7
:101E8800062201A88DF807508DF804208DF805303A
:101E98008DF8063000F0DCFE07B030BD38010020B8
:101EA80008B5034B012153F8200000F049FE08BD96
:101EB800380100202DE9F04F012189B007464FF481
:101EC800805001F09FF84FF40030012101F08EF8A6
:101ED8004FF40010012101F089F84FF4001001219E
:101EE80001F084F84FF40010012101F07FF805217A
:101EF8000A464FF0904000F02DFE4FF0904006212A
:101F0800052208AE00F026FE05224FF0904007217A
:101F180000F020FE202346F81C3D00254FF0030961
:101F28004FF0020A31464FF090408DF808A08DF826
:101F38000A508DF80B508DF8099000F09FFD31463E
:101F480080234FF09040019300F098FD31464023E4
:101F58004FF09040019300F091FD8748874C01F0C5
:101F6800A5F84FF4E0684FF482734FF4007C4FF00B
:101F7800100E07228048ADF80E3003A9ADF816C040
:101F8800ADF818E0ADF81C20ADF80C50ADF81250C3
:101F9800ADF81450ADF81A50ADF8108001F0BCF847
:101FA80075484FF4805101F017F97348012101F089
:101FB80005F94FF0080831464FF0010B70488DF8CD
:101FC8000A508DF80990CDF804808DF808B000F01B
:101FD80055FD41466A4800F0B9FD31466848CDF8DC
:101FE80004B08DF808508DF80A508DF809908DF8D6
:101FF8000B5000F043FD31466148CDF804A000F0D5
:102008003DFD41465E4897F800A097F801B097F863
:10201800029097F803803D797E79BF7900F098FDAA
:102028004FF48053236004E023685A1E2260002B7B
:102038006DD05148022101F0DFF80028F4D04E4855
:10204800202101F0D5F84FF48053236004E0236881
:102058005A1E2260002B5BD04748012101F0CCF8C2
:102068000028F4D0444801F0C5F84FF480532360A9
:1020780004E023685A1E2260002B4AD03E48022101
:1020880001F0BAF80028F4D04BEA0A0149EA010144
:1020980048EA0101384801F0ABF84FF48053236057
:1020A80004E023685A1E2260002B33D032480121F5
:1020B80001F0A2F80028F4D02F4801F09BF830482E
:1020C800082100F043FD2E48082100F041FD4FF49F
:1020D8008053236003E023685A1E2260DBB1264840
:1020E800022101F089F80028F5D02348232101F0C6
:1020F8007FF84FF4805323601F48012101F07CF8DA
:1021080050B923685A1E2260002BF5D1FEE7FEE77E
:10211800FEE7FEE7FEE7FEE7174801F06BF84FF42D
:10212800805323601448022101F066F828B9236817
:102138005A1E2260002BF5D1FEE746EA0501394315
:102148000D4801F055F84FF4805323600A480121E7
:1021580001F052F828B923685A1E2260002BF5D1E5
:10216800FEE7054801F046F80548082100F0EEFCB6
:1021780009B0BDE8F08F00BF003001403C010020ED
:1021880000100048012A2DE9F0410F46054688BF96
:1021980041F040072F48304C0821164600F0D8FC83
:1021A8004FF48053236004E023685A1E2260002BFA
:1021B8004BD02A48022101F01FF80028F4D03946F4
:1021C800264801F015F84FF48053236004E0236893
:1021D8005A1E2260002B39D02048012101F00CF84A
:1021E8000028F4D01D4801F005F846B3013E15FA61
:1021F80086F7013D4FF4805615F8018F266003E0FD
:1022080023685A1E226013B31448022100F0F4FF19
:102218000028F5D04146114800F0EAFF266003E0A7
:1022280023685A1E22609BB10C48012100F0E4FF8C
:102238000028F5D0094800F0DDFFBD42DCD1054893
:102248000821BDE8F04100F081BCFEE7FEE7FEE7AB
:10225800FEE700BF001000483C01002000300140AC
:10226800012AF8B58CBF41F0C00741F08007054648
:102278002F4C30480821164600F06AFC4FF4805372
:10228800236004E023685A1E2260002B4BD02A48A2
:10229800022100F0B1FF0028F4D03946264800F0AA
:1022A800A7FF4FF48053236004E023685A1E22607E
:1022B800002B39D02048012100F09EFF0028F4D0DF
:1022C8001D4800F097FF46B3013EB7B201372F44CF
:1022D8004FF48056266003E023685A1E226023B319
:1022E8001548022100F088FF0028F5D01248002187
:1022F80000F07EFF266003E023685A1E2260ABB11F
:102308000D48012100F078FF0028F5D00A4800F0B8
:1023180071FF05F8010BBD42DCD106480821BDE874
:10232800F84000F013BCFEE7FEE7FEE7FEE700BF5B
:102338003C01002000100048003001402DE9F04128
:102348003B4C4FF4204382B006468846174623602C
:1023580004E023685D1E2560002B63D035484FF4E8
:10236800004100F063FC0028F3D14FF400530093C0
:1023780030484FF080733146012200F03FFC4FF4A3
:102388002043236004E023685A1E2260002B4AD0B1
:102398002848022100F04AFC0028F4D0414625488C
:1023A80000F03EFC4FF42043236004E023685A1EEB
:1023B8002260002B38D01F48802100F037FC00280D
:1023C800F4D00023009331464FF0007319480122DE
:1023D80000F014FC4FF42043236003E023685A1EE6
:1023E800226013B31348022100F020FC0028F5D026
:1023F8003978104800F014FC4FF42043236003E0C0
:1024080023685A1E22608BB10A48202100F00EFC76
:102418000028F5D00748202100F00EFC002002B06B
:10242800BDE8F081FEE7FEE7FEE7FEE7FEE700BF56
:102438004001002000540040F0B590F805E0047910
:10244800877946780378C57882784EEA040485B09F
:102458003C433343134320216A462C4332208DF8F2
:1024680000308DF80840FFF769FF232102AA3220C7
:10247800FFF764FF05B0F0BD30B502784478837883
:10248800C57887B0144300216A463C208DF8103087
:102498008DF808508DF80040FFF750FF02AA01217F
:1024A8003C20FFF74BFF022104AA3C20FFF746FF20
:1024B80007B030BD2DE9F043414C4FF4204583B0BF
:1024C8008146884616461F46256004E025686B1E2F
:1024D8002360002D67D03B484FF4004100F0A6FB75
:1024E8000028F3D14FF4005203460092354849467C
:1024F800012200F083FB4FF42043236004E02368AB
:102508005A1E2260002B4FD02E48022100F08EFB6D
:102518000028F4D0012F88BF48F080084146294898
:1025280000F07EFB4FF42043236004E023685A1E2A
:102538002260002B39D02348402100F077FB002887
:10254800F4D04FF41053009349461E48FAB24FF0A6
:10255800007300F053FBC7B1013FBFB201373744E6
:102568004FF42045256003E023685A1E2260EBB132
:102578001448042100F05AFB0028F5D0114800F057
:1025880051FB06F8010BBE42ECD14FF42043236007
:102598000C48202100F04AFB48B923685A1E2260E3
:1025A800002BF5D1FEE7FEE7FEE7FEE7FEE705486C
:1025B800202100F041FB002003B0BDE8F08300BFFC
:1025C80040010020005400402DE9F0474FF400106E
:1025D8008CB0012100F022FD4FF48020012100F091
:1025E80005FD4FF40010012100F000FD3C4EDFF81E
:1025F800F880DFF8F8A04FF40010012100F0F6FC95
:102608004FF40010012100F0F1FC304606210422AD
:102618000CAD00F09FFA04223046072100F09AFA28
:10262800402345F82C3D002402274FF0030930468B
:1026380029468DF808708DF80B708DF80A408DF8D2
:10264800099000F01BFA802330462946019304269E
:1026580000F014FA2946404601968DF808408DF896
:102668000A408DF80B408DF8099000F007FA3946BA
:10267800304600F0C7FD0126082303A88DF8113065
:1026880003978DF810408DF8126000F031F80CA90E
:10269800144A41F81C2D504608940694079409944E
:1026A8000A940B9400F06AFA5046314600F09CFAFE
:1026B80029464046102301938DF809908DF808406B
:1026C8008DF80A408DF80B4000F0D8F920232946F0
:1026D8004046019300F0D2F90CB0BDE8F08700BF86
:1026E800000400480A02100000100048005400408E
:1026F80083792DE9F001002B58D0036890F804C0C5
:1027080047793F4E3F4D404C23F01F0101F1804176
:1027180001F5823103F01F080A68012303FA08F85B
:1027280022EA08020A60026822F01F0102F01F086C
:102738008A5903FA08F822EA08028A5106680CF155
:10274800804226F01F0102F5823206F01F0652F879
:1027580001C003FA06F64CEA06065650066826F04B
:102768001F0106F01F064A5903FA06F622EA060672
:102778004E51066826F01F0106F01F060A5903FA93
:1027880006F622EA0606102F0E5123D0006807F13C
:10279800804220F01F0102F5823200F01F005458D9
:1027A800834023435350BDE8F00170470379016823
:1027B80003F1804321F01F0203F582330124985866
:1027C80001F01F0104FA01F120EA01019950BDE866
:1027D800F0017047016821F01F0201F01F015659EE
:1027E80003FA01F131435151016821F01F0201F050
:1027F8001F0110598B4003431351BDE8F001704786
:1028080004040140080401400C04014000F01F02C8
:10281800012120F01F00024B01FA02F2C25070475A
:1028280014040140044B1A69120603D50349044AEB
:1028380059605A60704700BF002002402301674575
:10284800AB89EFCD024B1A6942F080021A617047DA
:102858000020024030B4354CE3680546D80705D45B
:10286800E368D9061ED5022030BC70473049E368BA
:102878002E4ADB0708D4D368D8060AD502200029D7
:102888002ED1052030BC70474B1E0029F9D01946BF
:10289800EDE7D36813F0040F0CBF042003200029D0
:1028A800EFD01DE0E3685A0717D4204B1A6942F0AD
:1028B80002021A615D611A6942F040021A61DA681F
:1028C800D20711D4DA68D50627D50220174B1A6922
:1028D80022F002021A6130BC7047032030BC7047F6
:1028E8000428E2D030BC704711491846C3680F4A23
:1028F800DC0707D4D368DB0608D50220002908BF07
:102908000520E3E74B1E79B11946EFE7D36813F0CA
:10291800040F0CBF04200320F0E7DB6813F0040F5A
:102928000CBF04200320D1E70520CFE70020024098
:10293800FFFF0A0070B483B000234B4D0193EB688E
:10294800DC07064606D4EB68D80620D5022003B07B
:1029580070BC7047454CEB68434ADB0709D4D36821
:10296800DD060BD50220002C2ED1052003B070BC4B
:102978007047631E002CF8D01C46ECE7D36813F0B0
:10298800040F0CBF04200320002CEED01CE0EB68E1
:102998005A0715D4344802698BB242F00102026129
:1029A8003380C368DC0714D4C368DA063DD5022037
:1029B8002D4B1A6922F001021A6103B070BC7047EE
:1029C800032003B070BC70470428E3D003B070BC88
:1029D8007047264CC368244ADD0719D4D368DB0640
:1029E8001AD50220FCB10428E2D102360196019BD7
:1029F8001D48090C1980C368DE071BD4C368DD06AF
:102A0800D5D4C36813F0040F0CBF04200320CFE70C
:102A1800631E44B11C46DDE7D36813F0040F0CBFF6
:102A280004200320DEE70520C2E7C3685B07DCD586
:102A38000320BDE70D4AC3680B49DC0707D4CB6800
:102A4800DB0609D50220002A08BF0520B0E7531E7F
:102A5800002AE8D01A46EEE7CB6813F0040F0CBF43
:102A680004200320EFE700BF00200240FFFF0A0018
:102A7800014BD860704700BF0020024000222DE9BA
:102A8800F00F13460E6801274FF0030804E00133E6
:102A9800102B02F102022BD007FA03F404EA060510
:102AA800A542F4D10C7904F1FF3C5FFA8CFCBCF12F
:102AB800010F08FA02FC1ED96FEA0C0C056891F8A0
:102AC80007900CEA05050560056894402C430460EE
:102AD800C46808FA02F524EA0504C460C56809FA5E
:102AE80002F401332C43102BC46002F10202D3D14B
:102AF800BDE8F00F7047D0F808B091F8059091F84C
:102B080006A06FEA0C0C0CEA0B0BC0F808B0D0F862
:102B180008B009FA02F949EA0B09C0F80890B0F8B8
:102B280004901FFA89F929EA05058580B0F8049010
:102B38000AFA03F545EA0905ADB28580BEE700BF8C
:102B4800038A19420CBF0020012070478161704739
:102B580001857047CB0800EB830001F0070110B432
:102B68008900046A0F238B4024EA03030362036A83
:102B78005DF8044B8A401343036270472DE9F00166
:102B8800D0F800800E698C69CB68164A28F00108D5
:102B980091E8A0104969C0F80080D0F8008008EAE0
:102BA800020242EA0C223A4325F070650260056190
:102BB80005680022344345F0010505608260C26063
:102BC8008460826842F400428260026813430360B2
:102BD800436823F0784323F400430B434360BDE884
:102BE800F0017047FFE0CF00036819B923F0010333
:102BF8000360704743F001030360704770B4466890
:102C0800064D039C35402C432343C1F30901194366
:102C180041EA0242426070BC704700BF009800FC65
:102C280081627047406AC0B2704700BF8369194229
:102C38000CBF002001207047C161704740F0BF60A1
:102C4800024B40F40030D860704700BF00ED00E050
:102C5800C378F0B463B90378184A5909203103F0EE
:102C68001F03012000FA03F342F82130F0BC70473B
:102C7800134B4678DA68857803781049D243C2F353
:102C880002220F27C2F1040427FA02F206FA04F41A
:102C98002A40224303F1604303F561431201D2B293
:102CA80083F800230378012003F01F025B0900FA70
:102CB80002F241F82320F0BC704700BF00E100E0B9
:102CC80000ED00E0024B00221A701870704700BF38
:102CD8000210024082B000230B4A019313689B0341
:102CE8000CD4019B01330193019BB3F5A06FF5D17F
:102CF800054B1868C0F3404002B07047019B013390
:102D08000193019BF4E700BF00100240014B1860DB
:102D1800704700BF60004242034B5A6822F003022A
:102D280010435860704700BF00100240024B5868BB
:102D380000F00C00704700BF00100240A34B5A6817
:102D480002F00C02042A2DE9F00102D0082A00F052
:102D5800FF809F4B036000269C4A9E4C51689E4F03
:102D6800C1F3031114F801C05FFA8CFC23FA0CF1CB
:102D780041605568C5F30225655D21FA05F5856052
:102D8800D2F80480C8F3C22814F808805FFA88F8DB
:102D980021FA08F1C160D26AC2F3041237F812208E
:102DA80092B2D40648BFB6FBF2F2884C58BF1A4616
:102DB8000261E26AC2F3442237F8122092B2D706BF
:102DC8004CBFB6FBF2F41C46804A4461176B804C3A
:102DD80017F0100F14BF1F4627468761176B17F0AF
:102DE800200F18BF1C46C461146BE40508D59E4229
:102DF80002D1E04500F0E1800162126B0C4607E069
:102E08000162126B970502D59E4200F0B9800C460C
:102E18006E4A4462146BA4072ED181626B4A116B0F
:102E280011F4403F3FD1C562684A116B11F4402F3D
:102E380052D10563654A116B11F4401F65D1456392
:102E4800624A116B11F4400F78D0116B01F4400104
:102E5800B1F5800F78D0136B03F44003B3F5000F7E
:102E680070D0136B03F44003B3F5400F01D1584BF6
:102E78008363BDE8F0017047116B01F0030101297C
:102E88007AD0116B01F00301022900F08A80126BDD
:102E980002F00302032A04BF4D4A82624B4A116BB7
:102EA80011F4403FBFD0116B01F44031B1F5803FC0
:102EB8006DD0116B01F44031B1F5003F79D0126B40
:102EC80002F44032B2F5403F04BF414AC2623F4A71
:102ED800116B11F4402FACD0116B01F44021B1F506
:102EE800802F52D0116B01F44021B1F5002F54D03E
:102EF800126B02F44022B2F5402F04BF344A026339
:102F0800324A116B11F4401F99D0116B01F4401132
:102F1800B1F5801F32D0116B01F44011B1F5001FDB
:102F280043D0126B02F44012B2F5401F04BF284A86
:102F38004263264A116B11F4400F86D18563BDE8C0
:102F4800F00170474FF400438363BDE8F001704718
:102F580059685C68C1F38341E50301F1020118D5A2
:102F6800DE6A1B4A06F00F060136B2FBF6F601FBD5
:102F780006F606603346EFE683624FE743635FE792
:102F8800E0457FF444AF5C0042E7036352E7C36265
:102F98004AE7124E06FB01F6EBE74FF400420263E4
:102FA80048E74FF40042826238E74FF40042426338
:102FB80046E74FF40042C26236E75C000462126BD7
:102FC80012F4007F08BF0C4622E700BF0010024041
:102FD80000127A00600100204401002000093D0031
:102FE800014B1860704700BFD8004242044B5A6931
:102FF80019B922EA000058617047104358617047B8
:1030080000100240044B9A6919B922EA000098613D
:10301800704710439861704700100240044BDA690A
:1030280019B922EA0000D86170471043D861704787
:1030380000100240044BDA6819B922EA0000D8608F
:1030480070471043D860704700100240044B1A695B
:1030580019B922EA000018617047104318617047D7
:1030680000100240430908D10F4B1B6800F01F00F5
:1030780023FA00F000F001007047012B0BD0042B5D
:10308800094B0CBF5B685B6A00F01F0023FA00F075
:1030980000F001007047044B1B6A00F01F0023FA80
:1030A80000F000F0010070470010024008B5174B0F
:1030B800984212D0164B98421BD0164B984200D01B
:1030C80008BD4FF400400121FFF7C0FF4FF4004056
:1030D8000021BDE80840FFF7B9BF4FF48050012137
:1030E800FFF7A8FF4FF480500021BDE80840FFF724
:1030F800A1BF4FF480400121FFF7A8FF4FF48040A3
:103108000021BDE80840FFF7A1BF00BF0030014023
:1031180000380040003C00404A88B2F5827F2DE923
:10312800F0032BD08388B1F80090B1F804C0B1F84F
:1031380006800F894E898D89CC8923F470631B041E
:103148001B0C42EA090243EA0C0C42EA0803A0F805
:1031580004C03B43028833432B4302F441522343C8
:1031680013439BB20380838B0A8A23F400631B04F6
:103178001B0C8383BDE8F00302827047B1F800801E
:10318800CC88B1F808C04F898E890388CD898A8890
:1031980048EA040444F4827444EA0C043C4334438B
:1031A8002C4303F4415323439BB20380838823F4C5
:1031B80070631B041B0C13438380D4E7038829B96D
:1031C80023F040031B041B0C038070479BB243F0A1
:1031D80040030380704700BF838823F480531B0497
:1031E8001B0C838083889BB219438180704700BF82
:1031F80001737047007B7047038919420CBF002098
:103208000120704701F0FC0303F1804303F580338C
:1032180001F0030110B489009C680F228A4024EA57
:1032280002029A609A685DF8044B884002439A60EB
:10323800704700BF08B538B1064B1B681B68984734
:10324800054B18680A3008BD034B1B6801221A8217
:1032580008BD00BFA4040020A804002008B538B1A8
:10326800064B1B689B689847054B18680C3008BDCF
:10327800034B1B6801221A8208BD00BFA40400206A
:10328800A804002008B5224B002832D021481A682B
:1032980000210180137813F07F0316D0012B27D06B
:1032A800022B24D1537903F00F021B0625D4930077
:1032B80003F1804303F5B8431B6803F44053B3F5A7
:1032C800805F0ED1012303700BE0537A9A0654BF36
:1032D8000278022259064CBF42F0010222F0010294
:1032E80002700D4B1B681B6998470A4808BD0846C1
:1032F80008BD1B6802221A8208BD920002F18042B2
:1033080002F5B842136803F03003102BE9D1D9E76E
:10331800A804002078040020A40400202DE9F0412E
:10332800264F3C68238A267A23B9042E2DD0A58AF5
:10333800042603E0A58AAB42FAD902269D4228BF9B
:103348001D462846A36998478046002000F0E4FD02
:103358002A460146404600F0EBFC2946002000F0D2
:10336800F7FD618AB4F810C01548164B3A68C5EBEA
:103378000C0C30270D444FF440510780A4F810C0BE
:10338800658219801672BDE8F0810F490A78012A12
:1033980007D022460A4B0726102116721980BDE86D
:1033A800F0810A480A4A05680548ADB22A44570020
:1033B80030253B6022460B700580E3E7A804002017
:1033C800B0040020AE040020C0010020505C004082
:1033D8000230002038B5304B1B68187810F07F0099
:1033E80003D0022806D0022038BD5A7A22F02002E3
:1033F8005A7238BD5A88002AF6D11A79002AF3D1B0
:103408005A7922F08000840004F1804404F5B8441D
:10341800110656BF2168256801F440551F490978EF
:1034280048BF05F030058842DDD2002DDBD09B7AFD
:10343800002BD8D01206236809D503F03003102BCF
:103448001ED0174B1B685B699847002038BD03F4F2
:103458004053B3F5805FF4D1D8B9124B93F82C10D0
:1034680000F084FD236823F4804323F070039BB2AB
:1034780083F4405343F4004343F080032360E0E7C0
:10348800C4B2204600F016FD2046302100F094FC1E
:10349800D7E700F0FDFCE5E7A804002010010020B4
:1034A800A40400208800002038B5224B186842790F
:1034B80022F080018B0003F1804303F5B843140622
:1034C80056BF1C681D6804F440551B4C247848BF3F
:1034D80005F03005A14201D3022038BD41880029FA
:1034E800FAD1002DF8D0817A0029F5D012F0800F9A
:1034F8001A6811D022F4E04222F0400292B282F01F
:10350800100242F4004242F080021A600B4B1B6822
:103518009B699847002038BD22F4804222F070024F
:1035280092B282F4805242F4004242F080021A6061
:10353800ECE700BFA804002010010020A40400202C
:10354800054B1B685A8A10B108681044704789886F
:103558008A1A1A82704700BFA8040020F0B5A84B49
:10356800A84C1A682568A84B92B213442A7A5B00C3
:10357800092A83B01E6857D0B6B2760006F1804695
:1035880006F5C04633782B7073786B70B08800F0FE
:103598001FFD68803089256800F01AFDA88023681F
:1035A800B289DA8001211972002A43D05878062896
:1035B80000F08780002857D15988002900F09580AD
:1035C800924E33681B699847032823685CD01A8A8F
:1035D8004FF6FF718A4257D002280CD05AB193F99E
:1035E80000100029C0F2B68089494FF440500322E8
:1035F80008801A7201E008221A72864B002093F89C
:103608002C1000F0B3FC2368187A082806D18049EA
:10361800814B4FF4805410220C801A80B0F10903BA
:103628005842584103B0F0BDEA882B46012119726F
:10363800002ABBD11A785D7812F07F0227D0012AC0
:1036480000F09E80022A00F00481704E33682846FC
:103658005B699847032800F033812368002800F04D
:10366800B38008221A72C8E7082850D11A7852067F
:10367800A6D16A4A00209A615882904723681A8A1C
:103688004FF6FF718A42A9D109221A72B5E7092DAE
:1036980000F0FC80052D00F0CB80032D00F0E480C5
:1036A800012DD2D1DA78012ACFD19A88002ACCD13B
:1036B8005B7A9B06C9D5FFF78DFE002800F0838052
:1036C800C3E71A7857067FF47BAF9A784F4E012AE2
:1036D80000F0F080022A00F08C80032A7FF471AF9A
:1036E8003268526A002AC5D16BE75A6822F47F42D1
:1036F800B2F5003F7FF464AF1A7812F07F0240F011
:10370800E3809A88002A7FF45BAF454AB2E70A282B
:103718007FF456AF1A7802F07F02012A7FF450AF87
:103728009A7A002A3FF44CAF598800297FF448AFB1
:103738005A68364E22F47F42B2F5803F7FF441AF9B
:10374800587933689B6998472368002800F0FD8002
:10375800587836E7D98801910198824242D88A423E
:1037680080F0D5802949096891F82C108A4280F0A8
:10377800D3802C4A002010709982FFF7CFFD3CE7D8
:103788000B2D7FF462AF214E58793268D97893694E
:103798001C4F984723689A7A002A3FF457AF0028AD
:1037A8007FF454AF1A79002A7FF450AF9B78002B2E
:1037B8007FF44CAF1C4B1B68DB6898473B68597912
:1037C800DA78D9721A7323680D49184A08681249B9
:1037D80080B202445200002515603020062208807D
:1037E8001A720AE7094A01991268198292F82C108C
:1037F800C2E73268126A002A7FF43CAFE1E600BFF4
:10380800505C0040A8040020043000208004002000
:10381800AE04002088000020B00400203D320008DB
:103828008D320008C0010020A404002002300020CE
:1038380093F90320002AFFF614AF9A78002A7FF440
:1038480010AF9A88002A7FF40CAF9A7A002ABBD06E
:1038580007E7012D3FF42FAF032D7FF4F6AEFFF7F6
:1038680023FE0028AFD0F0E6DA78012A7FF4EDAE27
:103878009A88002A7FF4E9AE597A354A41F0200146
:1038880012685972D369984723689DE73149DA78F5
:1038980049789142FFF4D9AE997800297FF4D5AEE2
:1038A800998800297FF4D1AE29499A720B685B6820
:1038B800984788E73268D269002A7FF4DBAE80E651
:1038C800236809221A7298E6012A30D0022A7FF466
:1038D80077AE5A7902F00F05A90001F1804101F590
:1038E800B841160656BF09680E6801F440561949D2
:1038F800097848BF06F030068D42BFF461AE12F079
:10390800700F7FF45DAE002E7FF4FFAE58E6124ACA
:10391800126892F82C102FE792FBF1F001FB1022AD
:10392800002A7FF429AF0D4A0120107024E70A4EBF
:10393800587933689B69984720B923689A7A002A8E
:103948007FF4E3AE236858783BE6054A92E600BF69
:10395800A40400201001002080040020C0010020E1
:1039680065320008F8B5284C2268137A022B25D056
:10397800042B23D0062B17D00821244B117293F85F
:103988002C10002000F0F2FA2368187A082806D1D3
:103998001F49204B4FF4805410220C801A80B0F13C
:1039A800090358425841F8BD5378052B0BD01A4BE0
:1039B8001B689B68984722680821DEE7FFF7AEFC82
:1039C8002268117AD9E7137813F07F03EFD11349EE
:1039D800D7780E7876B11248056843F4004140F66E
:1039E8000F722A4041F0800101330A439E4240F899
:1039F800042BF1D80B4B0C4A1B6847F08007176063
:103A08001B6A9847D3E700BFA8040020880000205D
:103A1800AE040020B0040020800400201001002023
:103A2800005C0040A40400204C5C0040F8B53A4D0E
:103A38002C68237A022B07D0042B05D0032B1BD02C
:103A4800052B19D0072B20D00822344B227293F86B
:103A58002C10002000F08AFA2B68187A082806D162
:103A68002F49304B4FF4805410220C801A80B0F14B
:103A7800090358425841F8BDA169238A11B35BB9BB
:103A8800A38A002B3FD027492EE0274B1B68DB6811
:103A980098472C680822D8E7A68A9E4228BF1E4667
:103AA80030468847228A638A921B334463820746DA
:103AB8002282002000F03EFA32460146384600F0E5
:103AC80055F9238A002BDBD0154B00204FF44052C8
:103AD80001461A8000F03CFA238AA28A1149302054
:103AE8009A4208800FD993B92C68104A104B0620C7
:103AF8002072126892B213445B0000221A603023CD
:103B0800227A0B80A1E72C68032222729DE72C6899
:103B18000522227299E700BFA8040020880000202F
:103B2800AE040020B004002080040020505C004057
:103B38000230002070B40C4B1E787EB10B4C002371
:103B4800256843F4004140F60F722A4041F0800195
:103B580001330A439E4244F8042BF1D8044B40F049
:103B68008000186070BC704710010020005C0040A5
:103B78004C5C0040704700BF38B5074D074A084CF9
:103B8800084B094909482A600225236015721B68F9
:103B98000860984738BD00BFA804002088040020AA
:103BA8008004002088000020A4040020B800002021
:103BB8002DE9F04782B00023DFF860A1DFF86C91AF
:103BC800534EADF80630D9F80030524C524F534995
:103BD800DFF83C81524D9AB21B044BF6BF70AAF82D
:103BE800002040F18A800B8803F00F039A0002F14D
:103BF800804202F5B8422B706BBB23689BB23380BE
:103C0800338803F030033B80338803F44053338018
:103C18002368184080F4005080F0200040F40040F1
:103C280040F0800020600B88DA063DD523689BB2FF
:103C3800ADF80630BDF806301B0561D4BDF8063076
:103C48001BB2002BBFDA226840F68F731340236043
:103C5800FFF7ECFE2FE0116889B2ADF80610BDF849
:103C6800061009B2002914DBBDF806301A06AAD5D9
:103C78002A782C49930003F1804303F5B843013AAD
:103C8800186851F8221048F60F7202401A608847E7
:103C980099E714682448013B40F68F71214050F899
:103CA800233011609847DFE7226848F60F73134006
:103CB8002360FFF757FE2168B8F800204BF6BF7362
:103CC800D504B8F8002001EA030348BF83F4805301
:103CD80094043A8848BF83F40053D0063A8848BF12
:103CE80083F01003910648BF83F0200343F4004398
:103CF80043F08003074A9BB2136002B0BDE8F08727
:103D0800226840F68F7313402360FFF727FCD2E741
:103D1800AE040020005C0040B00400206C030020CA
:103D280084040020400000205C000020445C004027
:103D380001F10051013201F54051531010B44FEA1E
:103D480041010FD00A1D023010F8014C10F8021C76
:103D5800013B41EA042122F8041C00F1020002F1AF
:103D68000402F1D15DF8044B704700BF01F1005126
:103D7800013201F5405153104FEA410105D051F885
:103D8800042B20F8022B013BF9D170474FF6F8734A
:103D9800014A034013607047505C0040800000F106
:103DA800804000F5B840036823F4EC4323F0700327
:103DB80019438BB203607047800000F1804000F522
:103DC800B840CA06036823F4E04323F040039BB2DB
:103DD80048BF83F010038A0648BF83F0200343F4EA
:103DE800004343F080030360704700BF800000F188
:103DF800804000F5B840CA04036823F4804323F0E8
:103E080070039BB248BF83F480538A0448BF83F48D
:103E1800005343F4004343F080030360704700BF3E
:103E2800800000F1804000F5B840036823F4E043C7
:103E380023F040039BB283F0300343F4004343F084
:103E480080030360704700BF800000F1804000F5E8
:103E5800B840036823F4804323F070039BB283F4D3
:103E6800405343F4004343F080030360704700BFAE
:103E7800800000F1804000F5B84040F60F6203680A
:103E8800134043F4004343F080030360704700BFCE
:103E9800800000F1804000F5B84003685B0408D555
:103EA800026840F60F73134043F4404343F0800325
:103EB80003607047800000F1804000F5B840036857
:103EC8005B0608D5026840F60F73134043F40043BD
:103ED80043F0C00303607047064B1B689BB203EBBB
:103EE800C00000F1005000F540504908400049006A
:103EF80001607047505C0040054A064B126892B258
:103F080002EBC000034449085B0049001960704790
:103F1800505C004004300020054B1B689BB203EB4B
:103F2800C00000F1005000F5405040000088704784
:103F3800505C0040044A054B126892B202EBC00084
:103F480003445B0018887047505C00400430002030
:103F5800044A054B126892B202EBC00003445B00AE
:103F680019607047505C0040023000200E4A0F4B29
:103F7800126892B202EBC00003443E294FEA4303A1
:103F88000AD94A09C80604BF02F1FF3292B2920266
:103F980042F400421A6070474A08C90744BF013218
:103FA80092B292021A607047505C004006300020BE
:103FB800054A064B126892B202EBC00003445B004C
:103FC8001868C0F309007047505C004006300020B4
:103FD800C3B2000A40EA0320704700BF10B4064984
:103FE800064C074A00204FF43F4320600B805DF8E1
:103FF800044B1360704700BFAC040020445C0040D1
:10400800405C004070B500F07F0528460E4694B22B
:10401800FFF782FF224601463046FFF789FE284611
:104028002146FFF795FF002070BD00BF70B500F076
:104038007F0528460E46FFF7BBFF04462846FFF7D4
:1040480079FF224601463046FFF790FE204670BDB4
:10405800002100F004B80C4B5B58435004310B4866
:104068000B4B42189A42FFF4F6AF0A4A00F003B825
:10407800002342F8043B084B9A42FFF4F9AFFDF7DE
:10408800B9FBFCF725FE7047E4410008000000205A
:104098007001002070010020B4040020FFF7FEBF6B
:1040A800FA00F401D00700000600FF0901A101157C
:1040B8000026FF0075088501953D090182020185EA
:1040C8000295060901B20201850495070901B202A9
:1040D80001850895040901B202018509953709018E
:1040E800B20201C009022900010100E0FA09040036
:1040F800000203000000092111010001223C000711
:10410800058103400001070501034000800000000D
:1041180020034F00630075006C00750073002000D9
:10412800560052002C00200049006E0063002E004B
:1041380012010002000000403328010000010102C2
:1041480003010000160354007200610063006B0055
:1041580065007200200044004B00000004030904BD
:10416800F51A0008000000006D1B000800000000A0
:104178000000000000000000000000000000000037
:10418800A51A0008E0020020F4030020E80200203D
:10419800F4030020F4030020F40300202C03002083
:1041A8001C020020077F087F7F7F05380000200061
:1041B8000000200000002000000020000000200077
:1041C8000000200000002000000020000002000184
:0C41D800000400800008004000100020DF
:1041E400640000001027000001000000000000002F
:1041F40000000000000001080D17264026170D08D6
:10420400010000001A03330039004D004100490049
:1042140033005400470051004B00330037000000C6
:104224000D1900087D3B00087D3B00087D3B00081C
:104234007D3B00087D3B00087D3B00081919000800
:104244007D3B00087D3B00087D3B00087D3B00086A
:104254007D3B00087D3B0008B04000083C000000A6
:10426400EC40000829000000851B0008A91B000879
:10427400351A0008391A00083D1A0008391B0008CD
:10428400611B0008551C0008611C00086D1C000817
:1042940000000000400000007D3B0008111A0008E7
:1042A4007D3B00087D3B00087D3B00087D3B00080A
:1042B4007D3B00087D3B0008291A0008FE400008E9
:1042C40009000000FF000000644100080400000031
:1042D40018410008200000004C41000816000000AE
:1042E400240000201A0000003841000812000000D9
:1042F4000201000001000000001000480010004806
:104304000010004800100048001000480010004849
:104314000010004800100048000000480010000091
:1043240000A00000000001000200040006000800D4
:104334000A000C0010002000400080000001000072
:104344000000000001020304010203040607080937
:040000050800405956
:00000001FF
